:020000040000FA
:10000000A304020AA3041909A3043400A3041A09CF
:10001000A3043500A3041B09A3043600700071007B
:10002000720073006400A304000BA304E50BA30497
:08003000820BFF082008810883
:1001F0006A000402A4023F0EE20100080F082D0865
:10020000A3041509A304A4047100020CA40439007A
:10021000450C3800A90C3700F7020C0BF8020C0B48
:10022000F9020C0B0000010C2F000F02A404F101D5
:10023000080C910003071D0B1E0B050BA4044606BA
:10024000220B230B350BA10C36007100A3041709F8
:10025000A304010C2F000F02A404F101030C910070
:100260000307330B340B260B760B6606380B390B62
:100270004B0B510C36007100A3041709A304010CA9
:100280002F000F02A404F101030C91000307490B96
:100290004A0B3C0B760B86064E0B4F0B610B910CF9
:1002A00036007100A3041709A304010C2F000F02EC
:1002B000A404F101030C910003075F0B600B520BC8
:1002C000760BA606640B650B760B610C360071008D
:1002D000A3041709A304010C2F000F02A404F101C9
:1002E000030C91000307750B760B680B480CA404F4
:1002F00038006C0C3700F7027B0BF8027B0B1E0BEF
:10030000A304000AA404260561000F0C8100030762
:100310008A0B8B0B850B2604720061000F0C810089
:100320000307930B940B8E0B010C2F000F02F201AD
:100330001F0C920003079D0B9E0B8D0B2605610081
:100340007000140CD00124000002A40433007200D9
:100350001307AB0BAC0BBD0B2D0C81000307B10BCE
:10036000B20BAC0B260461000F0C81000307B90B24
:10037000BA0BB40B26056100CD0B0F0C81000307EF
:10038000C20BC30BBD0B260461002D0C81000307BB
:10039000CA0BCB0BC50B2605BB0B03043303010CA7
:1003A0002F000F02F201080C92000307D80BD90BA3
:1003B000A80B010C2F000F02F001030C90000307A3
:1003C000E20BE30BA10B260400087C0CA40425001F
:1003D0003C0C0600F60C27003C0C2800C30C020065
:0403E00026040008E7
:021FFE00CA0F08
:00000001FF
